{
    "contractName": "NftStaker",
    "abi": [
        {
            "inputs": [
                {
                    "internalType": "address",
                    "name": "_tokenAddress",
                    "type": "address"
                },
                {
                    "internalType": "contract IERC721",
                    "name": "_NFTAddress",
                    "type": "address"
                }
            ],
            "stateMutability": "nonpayable",
            "type": "constructor"
        },
        {
            "inputs": [
                {
                    "internalType": "address",
                    "name": "_staker",
                    "type": "address"
                }
            ],
            "name": "calculateRewards",
            "outputs": [
                {
                    "internalType": "uint256",
                    "name": "",
                    "type": "uint256"
                }
            ],
            "stateMutability": "view",
            "type": "function"
        },
        {
            "inputs": [],
            "name": "claimRewards",
            "outputs": [],
            "stateMutability": "nonpayable",
            "type": "function"
        },
        {
            "inputs": [
                {
                    "internalType": "address",
                    "name": "",
                    "type": "address"
                }
            ],
            "name": "lastClaim",
            "outputs": [
                {
                    "internalType": "uint256",
                    "name": "",
                    "type": "uint256"
                }
            ],
            "stateMutability": "view",
            "type": "function"
        },
        {
            "inputs": [
                {
                    "internalType": "address",
                    "name": "_staker",
                    "type": "address"
                }
            ],
            "name": "nftsOfStaker",
            "outputs": [
                {
                    "internalType": "uint256[]",
                    "name": "",
                    "type": "uint256[]"
                }
            ],
            "stateMutability": "view",
            "type": "function"
        },
        {
            "inputs": [
                {
                    "internalType": "address",
                    "name": "operator",
                    "type": "address"
                },
                {
                    "internalType": "address",
                    "name": "from",
                    "type": "address"
                },
                {
                    "internalType": "uint256",
                    "name": "tokenId",
                    "type": "uint256"
                },
                {
                    "internalType": "bytes",
                    "name": "data",
                    "type": "bytes"
                }
            ],
            "name": "onERC721Received",
            "outputs": [
                {
                    "internalType": "bytes4",
                    "name": "",
                    "type": "bytes4"
                }
            ],
            "stateMutability": "nonpayable",
            "type": "function"
        },
        {
            "inputs": [
                {
                    "internalType": "uint256",
                    "name": "",
                    "type": "uint256"
                }
            ],
            "name": "originalOwner",
            "outputs": [
                {
                    "internalType": "address",
                    "name": "",
                    "type": "address"
                }
            ],
            "stateMutability": "view",
            "type": "function"
        },
        {
            "inputs": [
                {
                    "internalType": "address",
                    "name": "_staker",
                    "type": "address"
                }
            ],
            "name": "totalStakedBy",
            "outputs": [
                {
                    "internalType": "uint256",
                    "name": "",
                    "type": "uint256"
                }
            ],
            "stateMutability": "view",
            "type": "function"
        },
        {
            "inputs": [
                {
                    "internalType": "address",
                    "name": "",
                    "type": "address"
                }
            ],
            "name": "userRewards",
            "outputs": [
                {
                    "internalType": "uint256",
                    "name": "",
                    "type": "uint256"
                }
            ],
            "stateMutability": "view",
            "type": "function"
        },
        {
            "inputs": [
                {
                    "internalType": "uint256",
                    "name": "tokenId",
                    "type": "uint256"
                }
            ],
            "name": "withdrawNFT",
            "outputs": [],
            "stateMutability": "nonpayable",
            "type": "function"
        }
    ],
    "bytecode": "60c060405234801561001057600080fd5b50604051610c6d380380610c6d83398101604081905261002f9161004d565b6001600160601b0319606092831b8116608052911b1660a05261009f565b6000806040838503121561006057600080fd5b825161006b81610087565b602084015190925061007c81610087565b809150509250929050565b6001600160a01b038116811461009c57600080fd5b50565b60805160601c60a05160601c610ba36100ca60003960006103520152600061057f0152610ba36000f3fe608060405234801561001057600080fd5b50600436106100935760003560e01c806340bb154d1161006657806340bb154d146101145780635c16e15e1461015557806364ab867514610175578063878c6dad14610188578063f0dbdebb146101b157600080fd5b8063023245d7146100985780630660f1e8146100ad578063150b7a02146100e0578063372500ab1461010c575b600080fd5b6100ab6100a6366004610a2d565b6101d1565b005b6100cd6100bb366004610977565b60026020526000908152604090205481565b6040519081526020015b60405180910390f35b6100f36100ee366004610992565b6103b3565b6040516001600160e01b031990911681526020016100d7565b6100ab610461565b61013d610122366004610a2d565b6000602081905290815260409020546001600160a01b031681565b6040516001600160a01b0390911681526020016100d7565b6100cd610163366004610977565b60036020526000908152604090205481565b6100cd610183366004610977565b6105de565b6100cd610196366004610977565b6001600160a01b031660009081526001602052604090205490565b6101c46101bf366004610977565b6106ad565b6040516100d79190610a46565b6000818152602081905260409020546001600160a01b0316331461023c5760405162461bcd60e51b815260206004820152601c60248201527f596f75277265206e6f74206f776e6572206f662074686973204e46540000000060448201526064015b60405180910390fd5b33600090815260016020526040812090805b82548110156102dc5782818154811061026957610269610b41565b9060005260206000209060020201600101548414156102ca573360009081526003602052604090205483546102c391908590849081106102ab576102ab610b41565b906000526020600020906002020160000154426107d7565b91506102dc565b806102d481610afa565b91505061024e565b5033600090815260026020526040812080548392906102fc908490610a8a565b9091555061030c9050828461081a565b6000838152602081905260409081902080546001600160a01b031916905551632142170760e11b8152306004820152336024820152604481018490526001600160a01b037f000000000000000000000000000000000000000000000000000000000000000016906342842e0e90606401600060405180830381600087803b15801561039657600080fd5b505af11580156103aa573d6000803e3d6000fd5b50505050505050565b60008381526020818152604080832080546001600160a01b0319166001600160a01b0389169081179091558084526001808452828520835180850185524281528086018a8152825480850184558389528789209251600290910290920191825551920191909155908452600390925282205480156104315780610433565b425b6001600160a01b03881660009081526003602052604090205550630a85bd0160e11b91505095945050505050565b3360009081526003602052604090205462015180906104809042610ae3565b10156104dd5760405162461bcd60e51b815260206004820152602660248201527f596f752063616e20636c61696d2072657761726473206f6e636520696e20323460448201526520686f75727360d01b6064820152608401610233565b60006104e8336105de565b90506000811161053a5760405162461bcd60e51b815260206004820152601760248201527f4e6f207265776172647320666f7220636c61696d696e670000000000000000006044820152606401610233565b33600081815260036020908152604080832042905560029091528082209190915551633c37699760e21b81526004810191909152602481018290526001600160a01b037f0000000000000000000000000000000000000000000000000000000000000000169063f0dda65c90604401600060405180830381600087803b1580156105c357600080fd5b505af11580156105d7573d6000803e3d6000fd5b5050505050565b6001600160a01b03811660009081526001602090815260408083208054825181850281018501909352808352849361068093929190859084015b8282101561065e57838290600052602060002090600202016040518060400160405290816000820154815260200160018201548152505081526020019060010190610618565b505050506001600160a01b0385166000908152600360205260409020546108fa565b6001600160a01b0384166000908152600260205260409020549091506106a69082610a8a565b9392505050565b6001600160a01b0381166000908152600160209081526040808320805482518185028101850190935280835260609493849084015b82821015610728578382906000526020600020906002020160405180604001604052908160008201548152602001600182015481525050815260200190600101906106e2565b5050505090506000815167ffffffffffffffff81111561074a5761074a610b57565b604051908082528060200260200182016040528015610773578160200160208202803683370190505b50905060005b82518110156107cf5782818151811061079457610794610b41565b6020026020010151602001518282815181106107b2576107b2610b41565b6020908102919091010152806107c781610afa565b915050610779565b509392505050565b60008284106107e657836107e8565b825b935060006107f68584610ae3565b905062015180610807600a83610ac4565b6108119190610aa2565b95945050505050565b60005b82548110156108f55782818154811061083857610838610b41565b9060005260206000209060020201600101548214156108e3578254839061086190600190610ae3565b8154811061087157610871610b41565b906000526020600020906002020183828154811061089157610891610b41565b60009182526020909120825460029092020190815560019182015491015582548390806108c0576108c0610b2b565b600082815260208120600260001990930192830201818155600101559055505050565b806108ed81610afa565b91505061081d565b505050565b81516000908190815b81811015610951576109338587838151811061092157610921610b41565b602002602001015160000151426107d7565b61093d9084610a8a565b92508061094981610afa565b915050610903565b5090949350505050565b80356001600160a01b038116811461097257600080fd5b919050565b60006020828403121561098957600080fd5b6106a68261095b565b6000806000806000608086880312156109aa57600080fd5b6109b38661095b565b94506109c16020870161095b565b935060408601359250606086013567ffffffffffffffff808211156109e557600080fd5b818801915088601f8301126109f957600080fd5b813581811115610a0857600080fd5b896020828501011115610a1a57600080fd5b9699959850939650602001949392505050565b600060208284031215610a3f57600080fd5b5035919050565b6020808252825182820181905260009190848201906040850190845b81811015610a7e57835183529284019291840191600101610a62565b50909695505050505050565b60008219821115610a9d57610a9d610b15565b500190565b600082610abf57634e487b7160e01b600052601260045260246000fd5b500490565b6000816000190483118215151615610ade57610ade610b15565b500290565b600082821015610af557610af5610b15565b500390565b6000600019821415610b0e57610b0e610b15565b5060010190565b634e487b7160e01b600052601160045260246000fd5b634e487b7160e01b600052603160045260246000fd5b634e487b7160e01b600052603260045260246000fd5b634e487b7160e01b600052604160045260246000fdfea264697066735822122009f7202c59814d278f62519cdec6b215923947e818e281231bc7b879b763456a64736f6c63430008070033",
    "sourcePath": "c:/Users/bochv/Desktop/Solidity Testing/nft-staking-tests/contracts/NftStaker.sol",
    "compiler": {
        "name": "solc",
        "version": "0.8.7+commit.e28d00a7"
    },
    "functionHashes": {
        "calculateRewards(address)": "64ab8675",
        "claimRewards()": "372500ab",
        "lastClaim(address)": "5c16e15e",
        "nftsOfStaker(address)": "f0dbdebb",
        "onERC721Received(address,address,uint256,bytes)": "150b7a02",
        "originalOwner(uint256)": "40bb154d",
        "totalStakedBy(address)": "878c6dad",
        "userRewards(address)": "0660f1e8",
        "withdrawNFT(uint256)": "023245d7"
    },
    "gasEstimates": {
        "creation": {
            "codeDepositCost": "595800",
            "executionCost": "infinite",
            "totalCost": "infinite"
        },
        "external": {
            "calculateRewards(address)": "infinite",
            "claimRewards()": "infinite",
            "lastClaim(address)": "2530",
            "nftsOfStaker(address)": "infinite",
            "onERC721Received(address,address,uint256,bytes)": "infinite",
            "originalOwner(uint256)": "2480",
            "totalStakedBy(address)": "2592",
            "userRewards(address)": "2531",
            "withdrawNFT(uint256)": "infinite"
        },
        "internal": {
            "_calculateRewards(struct NftStaker.StakeData memory[] memory,uint256)": "infinite",
            "_calculateTokenRewards(uint256,uint256,uint256)": "300",
            "_removeNFTFromStaker(struct NftStaker.StakeData storage ref[] storage pointer,uint256)": "infinite"
        }
    }
}